AA12345WVWZZZ1JZXW000001  20171234567890120170115000000000BLACK               2024011020250110202401100115
BB23456JH4KA9650MC000002  20129876543210920120504100000000DARK RED            2023060120250601202401050504
CC345671HGCM82633A000003  20085555555555520080909100000000SILVER              2024022020250220202403010909
DD45678YS3FD79Y666000004  20201112223334420200228000000000WHITE               2023121220241212202312120228
EE56789SALWA2BK0HA000005  20192223334445520191010000000000BLUE                2024010120250101202401011010
