ZZ11111WVWZZZ1JZXW123456  20171234567890120170115000000000BLACK               2024011020250110202401100115
ZZ22222WVWZZZ1JZXW123457  00201234567890120170115000000000RED                 2024011020250110202401100115
ZZ33333WVWZZZ1JZXW123458  20175678901234520180220000000000                    2024022020250220202403010909
ZZ44444WVWZZZ1JZXW123459  20191234567890120190315000000000BLUE                202401010000000020240101
